:1014E8005420203D20252E32660053657420542058
:0714F8003D20252E326600A5
:0B152F00EF1FAC0670011E4C70F6228E
:07141C001214FF7F0A7E009D
:10142300E4FDFCC3ED9FEC9E5015E4FBFA0BBB00FF
:0F143300010ABA04F8BBFBF50DBD00010C80E403
:011442002287
:1014FF008FA0C2B0C2B1D2B27F017E00121423C23C
:02150F00B22206
:101511008FA0D2B0C2B1D2B27F017E00121423C219
:02152100B222F4
:1014CD007F3812141C7F0F12141C7F0112141C7F05
:0B14DD00811214FF7F0A7E000214231E
:1013F400E4FDD2907F08FE12152FC2907F507E002C
:1014040012152FD2907F0E7E0012152FA290E43376
:08141400FD7F147E0002152F7C
:1014AF00E4FB7D08C290EBC313FBD2903090034353
:0D14BF0003807F047E0012152FDDE9AF03CE
:0114CC0022FD
:02148F00AD07A7
:101491007B08C290ED1392907F057E0012152FD22A
:0E14A10090EDC313FDDBEB7F047E0002152FE0
:10146A001213F47FCC12148F7F4412148F1213F4C8
:10147A007FCC12148F7FBE12148F1214AF8F1212E8
:05148A0014AF8F1322D6
:1013C20020B411AF11AE10AD0FAC0EE4FBFA798070
:1013D200783F801220B51AAF11AE10AD0FAC0EE4FB
:1013E200FBFA798078BF1208078F118E108D0F8C4F
:0213F2000E22C9
:10128300E4F543F544C2B7C2B61214CDE4F511F543
:0712930010750FA8750E4154
:10129A00E4F545F546F547F54812146A750C0085DC
:1012AA00120D750C00E513FEEE420CAC0CAD0DEC04
:1012BA00120A7CE4FBFA7980783D1208F88F0B8ECB
:1012CA000A8D098C081213C230B41B30B518AC430E
:1012DA00AD44EC120A7CAB0BAA0AA909A8081209A8
:1012EA00FE700302136D754CFF754D14754EE8853B
:1012FA000B52850A5185095085084F7B007A00797F
:10130A0022120E707F011214FF7F811214FF7422C1
:10131A002546F8E6FF60101215110546E5467002EB
:10132A00054512141F80E77FC01214FF754CFF7524
:10133A004D14754EF2851152851051850F50850E48
:10134A004F7B007A007922120E7074222548F8E643
:10135A00FF60101215110548E5487002054712147E
:10136A001F80E7AF11AE10AD0FAC0EAB0BAA0AA9E6
:10137A0009A8081209FE60084006D2B7C2B6801F43
:10138A00AF11AE10AD0FAC0EAB0BAA0AA909A80893
:10139A001209FE5006C2B7D2B68004C2B7C2B6AFAF
:1013AA000BAE0AAD09AC08120AB58E438F447F64AE
:0513BA007E0012142367
:0313BF0002129A7D
:10080000020B21E86480F8E933E83360110460F0FA
:10081000ED33EC337009E8FCE9FDEAFEEBFF22045E
:1008200060DED3EB9FEA9EE99DE8C2E78CF0C2F759
:1008300095F0400CE8CCF8E9CDF9EACEFAEBCFFB25
:10084000120AEC85D0F05804700320D5B3E8047088
:10085000075002B2D5020B2B92D5EC0460F7E4CC22
:10086000C0E0C398F8603B94186008400DD0E0FBEE
:10087000020B03E4FBFAC9FC8028E830E406E4C973
:10088000FBE4CAFCE830E305E4C9CACBFCE8540742
:100890006010F8C3E913F9EA13FAEB13FBEC13FC4D
:1008A000D8F130F52FC3E49CFCEF9BFFEE9AFEEDF0
:1008B00099FDD0E0FBEF4E4D4C701222DB03020B92
:1008C00028EC2CFCEF33FFEE33FEED33FDED30E78B
:1008D000EB020B03EF2BFFEE3AFEED39FDD0E0FB10
:1008E00050130BBB0003020B2BED13FDEE13FEEFB9
:0808F00013FFEC13FC020B03E3
:1008F800EC4D6011E8497017ED33EC3304600DE4FA
:10090800FCFFFEFD22E933E8330470F8020B2112E4
:100918000AEC58046009E4CC2481500628500902E6
:100928000B2B284003020B28C0E0EB4A7044B98027
:1009380006D0E0FB020B17EF4E701CBD8008EBFFE2
:10094800EAFEE9FD80EBE98DF0A4FEE5F00209E19D
:10095800E9CDF9EAFEEBFFEF89F0A4FCE5F0CE89DA
:10096800F0A42EFFE435F0CD89F0A42DFEE435F097
:100978008067EF4E7005BD80D780C3EF8BF0A4ACC5
:10098800F0EE8BF0A42CFCE435F0F8EF8AF0A42C00
:10099800E5F038FCE433CB8DF0A42CFCE5F03BF813
:1009A800EE8AF0A42CFCE5F038F8E433CF89F0A403
:1009B8002CFCE5F038CF3400CE89F0A42FFFE5F009
:1009C8003EFEE433C98DF0A42EFEE5F039CD8AF061
:1009D800A42FFFE5F03EFEE43DFD33D0E0FB5007D9
:1009E8000BBB000F020B2BEC2CFCEF33FFEE33FE9E
:0609F800ED33FD020B03CC
:1009FE0074F8CC6480CCC86480C8F58204604FC3A0
:100A0E00EB9FF5F0EA9E42F0E99D42F0E89C45F03E
:100A1E00603C501DE5825FFFE582D313CB5BCBF4C8
:100A2E002B5582FB50280ABA002409B900200880F1
:100A3E001DE5825BFBE582D313CF5FCFF4C3132F8B
:100A4E005582FF50090EBE00050DBD00010CC3EB13
:100A5E009FF5F0EA9E42F0E99D42F0E89C45F06079
:090A6E0007CC4820E701B3EC229B
:100A770075F020800E75F010800575F0087D007EFA
:100A8700007F003392D530D503120DD0EC334010E0
:100A9700EF33FFEE33FEED33FDEC33FCD5F0ED2203
:0E0AA700E5F0247EA2D513CC92E7CDCEFF223F
:100AB500EDD2E7CD33EC3392D524814006E4FFFE39
:100AC500FDFC22FCE4CFCECDCC24E0501174FF8098
:100AD500EDC3CC13CCCD13CDCE13CECF13CF047035
:070AE500F030D5DE020DD058
:100E1400E560244CF8E60560227849300702784CF6
:100E2400E475F001120DDE020D782000EB7F2ED266
:100E3400008018EF540F2490D43440D4FF30040BB6
:100E4400EF24BFB41A0050032461FFE5616002156A
:100E5400610564E5647002056330070D7849E47543
:100E6400F001120DDEEF020DBE0214437403D2072B
:100E74008003E4C207F5608B498A4A894BE4F56133
:100E8400F563F564E56160077F20120E4F80F57508
:100E940062FFC201C200C202C203C205C206C20886
:100EA400120E1DFF700D3007057F00120E60AF6437
:100EB400AE6322B4255FC2D5C204120E1DFF24D036
:100EC400B40A00501A75F00A786130D50508B6FFE7
:100ED4000106C6A426F620D5047002D20380D924C4
:100EE400CFB41A00EF5004C2E5D20402114DD2016E
:100EF40080C6D20080C0D20280BCD2D580BAD205CE
:100F040080B47F20120E4F2002077401B5610040A7
:100F1400F1120E14FF120E4F020E88D208D2068070
:100F240095120E14FB120E14FA120E14F94A4B7099
:100F34000679447A127BFF20022EE561602A7E0046
:100F44008E82758300120D9160060EEE656270F05C
:100F5400C2D5EBC0E0EAC0E0E9C0E0EE1211ADD0CA
:100F6400E0F9D0E0FAD0E0FB120D78FF60AAEBC004
:100F7400E0EAC0E0E9C0E0120E4FD0E02401F9D06D
:100F8400E03400FAD0E0FBE5620460DCD562D9808D
:100F940087D20280A212119060F7E56270010412F8
:100FA4000B36A962600DE562600914F5621212370E
:100FB400EF60F3EA30E702F404C3995077EAF425CA
:100FC400620430E701E404F562800D12119060C1FF
:100FD400EA05622562120B36EA785FF630E701E42F
:100FE400256204D56204200501141211ADE4C0E0A9
:100FF400121237785FE6601320E70714F6120E37F3
:10100400802204F6D0E014C0E07F00120E37E562BF
:101014006007120E2E1562800B300503120E2ED0BF
:10102400E0020E88D0E00480C512119060A0E56251
:1010340004120B36785FEAF6E562200502600104CB
:0510440024041211ADAF
:1010490074FF04C0E0121237120E37E56220050260
:101059006003120E2ED0E0B562E87F45120E41788A
:101069005FE67F2B30E7047F2DF404C0E0120E4FBA
:10107900D0E075F00A84C0F0120E38D0E0120E38B4
:10108900020E88791080027908C206C2088008D247
:10109900D5790A8004790AC2D5E562047002F5623D
:1010A900E4FAFDFEFF120E14FC7B08200113120E58
:1010B90014FD7B1030000A120E14FE120E14FF7B71
:1010C90020EC3382D592D55013C3E43000069FFF3C
:1010D900E49EFEE42001039DFDE49CFCE4CBF8C200
:1010E90001EC700CCFCECDCCE824F8F870F3801762
:1010F900C3EF33FFEE33FEED33FDEC33FCEB33FB93
:10110900994002FB0FD8E9EB300105F8D0E0C4485B
:10111900B201C0E00AEC4D4E4F78207B0070C2EA64
:10112900B5620040BCC0E01211AFD0F0D0E02001A0
:1011390004C4C0E0C4B201C0F0120E38D0F0D5F03A
:10114900EB020E88120DEE0F2553108C580EF64C3B
:101159000EF24210904F1098441098490F0B43100B
:101169009E550FCF46102D450F99471264500EFA20
:101179002D0EFE2E0F212B0F02230F1F20124D2A99
:101189000EBA4800000F19E562B4FF037562061232
:101199000E14FC120E14FD120E14FE120E14FF781A
:1011A90058020B65790AA2D5200314300509B91034
:1011B900020404B9080104A2D52006025001042042
:1011C90002689202B561005034C0E07F20300319F3
:1011D9007F30A20272067205500F121206C202C2B5
:1011E90006C205C2087F30800F300503E9C0E0124E
:1011F9000E4F300503D0E0F9D0E0B561CC300517CA
:101209007F30B9100C120E4F7F583004077F788059
:1012190003B90803120E4F3002057F2D020E4F7FCE
:10122900202008F87F2B2006F322920280CF7F002E
:10123900B4070050052458F8E6FF22286E756C6C37
:101249002900D201120E143001F8C201786130D59B
:101259000108F6020EBA2D50434958120E14240300
:10126900B405004001E490125F93120E40743A12E3
:0A1279000E40D20375610402108CD0
:100AEC00E9D2E7C933E833F892D5EDD2E7CD33EC50
:070AFC0033FC5002B2D522C9
:100B0300EC30E7100FBF000C0EBE00080DBD000453
:100B13000BEB6014A2D5EB13FCED92E7FD2274FFFF
:100B2300FCFDFEFF22E480F8A2D574FF13FC7D8058
:030B3300E480EF6C
:100B3600F920E72824F950037907E4F42402FB1886
:100B4600DBFDE624FB5014E9600DE4F618E604F636
:0F0B5600B40A08E4F6D9F57401F60A22C2D522D2
:100B6500ED33EC3392D5FA602AB4FF33EDC2E77B5F
:100B7500FF60067A0B798AE4227A0B799320D504F3
:100B85007A0B798E224E614E002B494E46002D4937
:100B95004E4600E47A08F608DAFC7B00740722E882
:100BA500C0E0ECC0E0EDC0E0EEC0E0EFC0E0EA750B
:100BB500F010A4CAABF075F04DA42BFBE435F0FCA6
:100BC500EA2410FAEB34C5FBEC34D9FCEDC2E7FF9F
:100BD50075F056A4F42411C5F0F434C58FF0A42A99
:100BE500E5F03BE43CF620E714120D38D0E0FFD0E9
:100BF500E0FED0E0FDD0E0FC120C6B8014F4041292
:100C05000D38D0E0FFD0E0FED0E0FDD0E0FC1208CA
:100C1500F8D0E0F8E6FAEDD2E7CD33EC332482FBE9
:100C2500E4C3CF33CFCE33CECD33CD33DBF37B0728
:100C350075F00A846004F6081B0AE5F0F6088FF0E3
:100C4500740AA4FFACF08EF0740AA42CFEACF0502C
:100C5500010C8DF0740AA42CFDE435F0F608DBDEFA
:030C6500740722EF
:100C6800020B2BEC5D046005E859047003020B21AC
:100C7800120AEC580460F6EC4860F2EC7004FDFED1
:100C8800FF22C860DB2481C85009C398600250065F
:100C9800020B289850CAF582E9294B4A7005AB82A5
:100CA800020B1775F0007C1A7880C3EF9BEE9AED63
:100CB80099400DC3EF9BFFEE9AFEED99FDE842F0D7
:100CC800DC23ACF0D0E0FFD0E0FED0E0FDAB82202A
:100CD800E7101BEB60BAEC2CFCEF33FFEE33FEEDB4
:100CE80033FD020B03E803F830E705C0F075F000A8
:100CF800EF2FFFEE33FEED33FD40B830E7C280AA98
:100D08003F8000004120000042C80000447A0000F3
:100D1800461C400047C35000497424004B18968075
:100D28004CBEBC205A0E1BCA6753C21C749DC5AE6C
:100D3800FB60065407601C2323120D66EB543860D1
:100D480009120D52120D611208F8ECF8EDF9EEFADD
:100D5800EFCB22EB120D6180F1543803241C900D67
:100D680008FE93FC0EEE93FD0EEE930ECE93FF223B
:03000000021523C3
:0C152300787FE4F6D8FD75816402128325
:100D7800BB010689828A83E0225002E722BBFE0279
:090D8800E32289828A83E49322AC
:100D9100BB010CE58229F582E5833AF583E0225017
:100DA10006E92582F8E622BBFE06E92582F8E22261
:0D0DB100E58229F582E5833AF583E493227B
:100DBE00BB010689828A83F0225002F722BBFE0114
:020DCE00F3220E
:0E0DD000C3E49FFFE49EFEE49DFDE49CFC2234
:100DDE00FAE6FB0808E6F925F0F618E6CA3AF62216
:100DEE00D083D082F8E4937012740193700DA3A394
:100DFE0093F8740193F5828883E4737402936860A8
:060E0E00EFA3A3A380DFA7
:10144300EFB40A07740D12144E740A309811A89958
:10145300B8130CC2983098FDA899C298B811F63009
:0714630099FDC299F59922E1
:00000001FF
